{
  "_format": "hh-sol-artifact-1",
  "contractName": "Contract",
  "sourceName": "contracts/Contract.sol",
  "abi": [
    {
      "anonymous": false,
      "inputs": [
        {
          "indexed": false,
          "internalType": "string",
          "name": "_login",
          "type": "string"
        },
        {
          "indexed": false,
          "internalType": "uint256",
          "name": "_age",
          "type": "uint256"
        },
        {
          "indexed": false,
          "internalType": "bool",
          "name": "_isWorking",
          "type": "bool"
        }
      ],
      "name": "NewUserAdd",
      "type": "event"
    },
    {
      "anonymous": false,
      "inputs": [
        {
          "indexed": false,
          "internalType": "string",
          "name": "_login",
          "type": "string"
        },
        {
          "indexed": false,
          "internalType": "uint256",
          "name": "_age",
          "type": "uint256"
        },
        {
          "indexed": false,
          "internalType": "bool",
          "name": "_isWorking",
          "type": "bool"
        }
      ],
      "name": "UserDelete",
      "type": "event"
    },
    {
      "inputs": [
        {
          "internalType": "string",
          "name": "_login",
          "type": "string"
        },
        {
          "internalType": "uint256",
          "name": "_age",
          "type": "uint256"
        },
        {
          "internalType": "bool",
          "name": "_isWorking",
          "type": "bool"
        }
      ],
      "name": "addUser",
      "outputs": [],
      "stateMutability": "nonpayable",
      "type": "function"
    },
    {
      "inputs": [
        {
          "internalType": "string",
          "name": "_login",
          "type": "string"
        }
      ],
      "name": "removeUser",
      "outputs": [],
      "stateMutability": "nonpayable",
      "type": "function"
    },
    {
      "inputs": [
        {
          "internalType": "string",
          "name": "",
          "type": "string"
        }
      ],
      "name": "users",
      "outputs": [
        {
          "internalType": "string",
          "name": "login",
          "type": "string"
        },
        {
          "internalType": "uint256",
          "name": "age",
          "type": "uint256"
        },
        {
          "internalType": "bool",
          "name": "isWorking",
          "type": "bool"
        }
      ],
      "stateMutability": "view",
      "type": "function"
    }
  ],
  "bytecode": "0x608060405234801561001057600080fd5b50610a52806100206000396000f3fe608060405234801561001057600080fd5b50600436106100415760003560e01c8063600cee7814610046578063689e1c0314610062578063e6c8d14414610094575b600080fd5b610060600480360381019061005b91906104ea565b6100b0565b005b61007c600480360381019061007791906104ea565b61018a565b60405161008b939291906105e6565b60405180910390f35b6100ae60048036038101906100a9919061067c565b61025f565b005b7f2d5855b37134dd0fc82849603fef627919c849771756e219a88551a0106319a5816000836040516100e29190610727565b9081526020016040518091039020600101546000846040516101049190610727565b908152602001604051809103902060020160009054906101000a900460ff16604051610132939291906105e6565b60405180910390a160008160405161014a9190610727565b9081526020016040518091039020600080820160006101699190610333565b60018201600090556002820160006101000a81549060ff0219169055505050565b6000818051602081018201805184825260208301602085012081835280955050505050506000915090508060000180546101c39061076d565b80601f01602080910402602001604051908101604052809291908181526020018280546101ef9061076d565b801561023c5780601f106102115761010080835404028352916020019161023c565b820191906000526020600020905b81548152906001019060200180831161021f57829003601f168201915b5050505050908060010154908060020160009054906101000a900460ff16905083565b60006040518060600160405280858152602001848152602001831515815250905080600082600001516040516102959190610727565b908152602001604051809103902060008201518160000190816102b8919061094a565b506020820151816001015560408201518160020160006101000a81548160ff0219169083151502179055509050507f9f64ce59d56c101fb8328014bc8232dd8b2b203084decd09bbb9e6a864391e59816000015182602001518360400151604051610325939291906105e6565b60405180910390a150505050565b50805461033f9061076d565b6000825580601f106103515750610370565b601f01602090049060005260206000209081019061036f9190610373565b5b50565b5b8082111561038c576000816000905550600101610374565b5090565b6000604051905090565b600080fd5b600080fd5b600080fd5b600080fd5b6000601f19601f8301169050919050565b7f4e487b7100000000000000000000000000000000000000000000000000000000600052604160045260246000fd5b6103f7826103ae565b810181811067ffffffffffffffff82111715610416576104156103bf565b5b80604052505050565b6000610429610390565b905061043582826103ee565b919050565b600067ffffffffffffffff821115610455576104546103bf565b5b61045e826103ae565b9050602081019050919050565b82818337600083830152505050565b600061048d6104888461043a565b61041f565b9050828152602081018484840111156104a9576104a86103a9565b5b6104b484828561046b565b509392505050565b600082601f8301126104d1576104d06103a4565b5b81356104e184826020860161047a565b91505092915050565b600060208284031215610500576104ff61039a565b5b600082013567ffffffffffffffff81111561051e5761051d61039f565b5b61052a848285016104bc565b91505092915050565b600081519050919050565b600082825260208201905092915050565b60005b8381101561056d578082015181840152602081019050610552565b60008484015250505050565b600061058482610533565b61058e818561053e565b935061059e81856020860161054f565b6105a7816103ae565b840191505092915050565b6000819050919050565b6105c5816105b2565b82525050565b60008115159050919050565b6105e0816105cb565b82525050565b600060608201905081810360008301526106008186610579565b905061060f60208301856105bc565b61061c60408301846105d7565b949350505050565b61062d816105b2565b811461063857600080fd5b50565b60008135905061064a81610624565b92915050565b610659816105cb565b811461066457600080fd5b50565b60008135905061067681610650565b92915050565b6000806000606084860312156106955761069461039a565b5b600084013567ffffffffffffffff8111156106b3576106b261039f565b5b6106bf868287016104bc565b93505060206106d08682870161063b565b92505060406106e186828701610667565b9150509250925092565b600081905092915050565b600061070182610533565b61070b81856106eb565b935061071b81856020860161054f565b80840191505092915050565b600061073382846106f6565b915081905092915050565b7f4e487b7100000000000000000000000000000000000000000000000000000000600052602260045260246000fd5b6000600282049050600182168061078557607f821691505b6020821081036107985761079761073e565b5b50919050565b60008190508160005260206000209050919050565b60006020601f8301049050919050565b600082821b905092915050565b6000600883026108007fffffffffffffffffffffffffffffffffffffffffffffffffffffffffffffffff826107c3565b61080a86836107c3565b95508019841693508086168417925050509392505050565b6000819050919050565b600061084761084261083d846105b2565b610822565b6105b2565b9050919050565b6000819050919050565b6108618361082c565b61087561086d8261084e565b8484546107d0565b825550505050565b600090565b61088a61087d565b610895818484610858565b505050565b5b818110156108b9576108ae600082610882565b60018101905061089b565b5050565b601f8211156108fe576108cf8161079e565b6108d8846107b3565b810160208510156108e7578190505b6108fb6108f3856107b3565b83018261089a565b50505b505050565b600082821c905092915050565b600061092160001984600802610903565b1980831691505092915050565b600061093a8383610910565b9150826002028217905092915050565b61095382610533565b67ffffffffffffffff81111561096c5761096b6103bf565b5b610976825461076d565b6109818282856108bd565b600060209050601f8311600181146109b457600084156109a2578287015190505b6109ac858261092e565b865550610a14565b601f1984166109c28661079e565b60005b828110156109ea578489015182556001820191506020850194506020810190506109c5565b86831015610a075784890151610a03601f891682610910565b8355505b6001600288020188555050505b50505050505056fea26469706673582212203c716c810fb49b382a63135b81743232b6b433cd1fca44e4d1e2b1a83c65092f64736f6c63430008130033",
  "linkReferences": {},
  "deployedLinkReferences": {}
}